:020000040800F2
:10000000C8040020490100085B1000088B0F00089D
:100010005910000801020008F1110008000000005A
:100020000000000000000000000000005F10000859
:1000300003020008000000005D10000861100008C5
:100040006301000863010008630100086301000800
:1000500063010008630100086301000863010008F0
:1000600063010008630100086301000863010008E0
:1000700063010008630100086301000863010008D0
:1000800063010008630100086301000863010008C0
:1000900063010008630100086301000863010008B0
:1000A00063010008630100086301000863010008A0
:1000B0006301000863010008630100086301000890
:1000C0006301000863010008630100086301000880
:1000D0006301000863010008630100086301000870
:1000E0006301000863010008630100086301000860
:1000F0006301000863010008630100086301000850
:10010000630100086301000863010008630100083F
:10011000630100086301000863010008630100082F
:10012000630100086301000863010008630100081F
:10013000DFF810D000F052F800480047911800088E
:10014000AFF30080C80400200648804706480047F7
:10015000FEE7FEE7FEE7FEE7FEE7FEE7FEE7FEE777
:10016000FEE7FEE7C510000831010008202A04DB85
:10017000203A21FA02F00021704721FA02F3D04020
:10018000C2F120029140084319467047D2B201E003
:1001900000F8012B491EFBD270470022F6E710B58C
:1001A00013460A4604461946FFF7F0FF204610BDE5
:1001B00030B50B46014600202022012409E021FA37
:1001C00002F59D4205D303FA02F5491B04FA02F534
:1001D0002844151EA2F10102F1DC30BD064C074D8A
:1001E00006E0E06840F0010394E807009847103407
:1001F000AC42F6D3FFF7A0FFF4180008141900086A
:10020000FEE7704772B6FEE706490020C86106485F
:10021000016941F004010161016941F0400101619E
:1002200070470000A800002000200240064A00217C
:10023000D16106490A6942F002020A61486108690F
:1002400040F0400008617047A800002000200240F4
:10025000044B0022DA61044A136943F0010313617D
:1002600001807047A80000200020024014480022AE
:10027000C168CB06134904D5CA6942F00202CA61BB
:100280001022C3685B0705D5CB6943F00103CB613E
:1002900042F00402C369DB0707D0CB6943F00403D3
:1002A000CB61C16921F00101C161A2F58071013901
:1002B00001D0C2607047C16921F00101C16170477E
:1002C00000200240A800002070B5054600F0F4F9B7
:1002D0000646114C09E0681C07D025B100F0ECF986
:1002E000801BA84201D9032070BDE068C007F2D18D
:1002F000E068800601D52020E060E068C00605D4F3
:10030000E069C00702D1E068400703D5FFF7AEFF00
:10031000012070BD002070BD0020024070B5044671
:1003200000F0CAF90546601C02D004480078044475
:1003300000F0C2F9401BA042FAD370BD00000020BB
:100340002DE9F047054626480F460126017E012982
:100350000FD00121814601762868DFF888804CF2B1
:100360005034022808D0A2462046FFF7ADFFA8B1BE
:1003700031E00220BDE8F0872046FFF7A5FF08BB6B
:100380000120FFF741FF2046FFF79EFFD8F810102D
:10039000064621F00401C8F810101CE04FF0FF30B1
:1003A0003860AC6811E02046FFF740FF5046FFF789
:1003B0008BFFD8F81010060021F00201C8F81010C9
:1003C00001D03C6007E004F50064D5E9020100EBD0
:1003D000C120A042E7D8002189F818103046C9E7AB
:1003E000A8000020002002400348016941F080017C
:1003F0000161002070470000002002402DE9F05FFD
:1004000007461C4888460024017E15461E460129E1
:1004100009D00121814601764CF2503A5046FFF74F
:1004200053FF18B122E00220BDE8F09F012F02D057
:10043000022F00D00427D346DFF83CA02201284633
:100440003146FFF793FE81B208EB4400FFF700FF4F
:100450005846FFF739FFDAF8102022F00102CAF8F7
:10046000102018B9641CE4B2BC42E7D3002289F81A
:100470001820D9E7A80000200020024006490020EB
:100480000A69120607D5054A4A60054A4A600969A1
:10049000090600D50120704700200240230167456E
:1004A000AB89EFCD2DE9F84FDFF8C891002409F1B1
:1004B000040A0AF1040B23460F270BF1040ED1E0C6
:1004C0000125A54006EA0502AA4276D1DFF8A8C1B7
:1004D0004E68A6EB0C0866452BD00DDC032E34D0FD
:1004E00005DC36B3012E19D0022E2FD11BE0112EC0
:1004F00016D0122E2AD119E0B8F5881F19D006DCC3
:10050000B8F5803F15D0B8F5801F1FD111E0B8F5C0
:10051000001F0ED0B8F5041F18D10AE0CB6815E013
:10052000CB681B1D12E0CB6808330FE0CB680C339F
:100530000CE08B682BB1012B4FF0080303D0456111
:1005400004E0042302E0056100E00023FF2A01D853
:10055000064601E000F104064FEA840501D9A5F141
:100560002005D6F8008007FA05FC28EA0C0803FAF3
:1005700005F548EA0508C6F800804D68ED0070D51D
:100580003E4DAE6946F00106AE61AD6924F003064A
:1005900005F0010500953A4D06EB050CDCF8085016
:1005A000A607360F07FA06F825EA0805DFF8D48013
:1005B000404503D14FF0000825E052E0DFF8C88045
:1005C000404502D14FF001081DE0DFF8C0804045F2
:1005D00002D14FF0020816E0DFF8B480404502D1A6
:1005E0004FF003080FE0DFF8AC80404502D14FF038
:1005F000040808E0DFF8A080404502D14FF005086C
:1006000001E04FF0060808FA06F848EA0508CCF8B9
:1006100008804D68D9F80060ED034D4601D51643BA
:1006200000E096432E604D68DAF80060AD03554651
:1006300001D5164300E096432E604D68DBF800605C
:10064000ED025D4601D5164300E096432E604D68ED
:10065000DEF80060AD02754601D5164300E0964312
:100660002E60641C0A681646E2407FF429AFBDE89C
:10067000F88F00000004014000001110001002403B
:100680000000014000080140000C01400010014042
:100690000014014000180140001C0140C26821EA1A
:1006A00002030A4043EA0241016170470AB1016155
:1006B00070470904FBE700000148806870470000AC
:1006C0000000002002488168027811448160704770
:1006D00000000020074810B5016841F010010160DA
:1006E000032000F067F80F2000F006F800F024F86F
:1006F000002010BD0020024070B50D4D04464FF49F
:100700007A712878B1FBF0F00A490968B1FBF0F082
:1007100000F0DEFA48B9102C07D200222146501E04
:1007200000F028F800206C6070BD012070BD000052
:10073000000000200C0000200C4808B5816941F041
:1007400001018161816901F001010091C16941F0FC
:100750008051C161C06900F0805000900448416838
:1007600021F0E06141F00071416008BD00100240DD
:1007700000000140F0B40E4B1B680C46C3F302238B
:10078000C3F10705042D00D90425191D072901D23D
:10079000002300E0DB1E012606FA05F1491E214078
:1007A00099409E40761E16403143F0BC00F032BDA9
:1007B0000CED00E0064900F0070208684FF6FF0361
:1007C000184040EA0220034A1043086070470000C6
:1007D0000CED00E00000FA052DE9F0470F4605009A
:1007E00061D0434E306800F00700B84209D230684B
:1007F00020F0070038433060306800F00700B8424E
:1008000051D128683B4C810712D5400703D5606859
:1008100040F4E06060602878000703D5606840F429
:10082000605060606068A96820F0F0000843606074
:100830002878C00728D06868012810D021680228CD
:1008400010D0890700292EDA616821F003010143E5
:100850006160FFF731FF804641F288390DE0216881
:100860008903EFE78901EDE7FFF726FFA0EB080119
:10087000494502D90320BDE8F0876068696800F047
:100880000C00B0EB810FEFD1306800F00700B842E8
:100890000BD9306820F0070038433060306800F032
:1008A0000700B84201D00120E5E72878400705D5C8
:1008B0006068E96820F4E060084360602878000719
:1008C00006D56068296920F4605040EAC100606084
:1008D00000F038F86168084AC1F30311515CC84060
:1008E0000649086006480068FFF706FF0020C2E7D7
:1008F0000020024000100240DC1800080C0000201C
:10090000040000200448054900684968044AC1F30E
:100910000221515CC84070470C00002000100240CA
:10092000EC1800080448054900684968044AC1F306
:10093000C221515CC84070470C00002000100240EA
:10094000EC18000812A185B00FC98DE80F0014A0A3
:10095000144A006804905168134801F00C03042BFA
:1009600010D0082B0ED1C1F38343C9031DF8030037
:100970000AD5516804AAC1F34041515C0A4A504368
:10098000B0FBF1F005B0704708494843FAE70000B2
:1009900002030405060708090A0B0C0D0E0F1010C0
:1009A000010200000010024000127A0000093D0020
:1009B0002DE9F84F040070D02078C04DC00749D011
:1009C0006868C0F38100012807D06868C0F381001F
:1009D000022809D16868C00306D52868800339D584
:1009E00060680028E7D035E06068B0F5803F0BD044
:1009F00010B1B0F5A02F11D0286820F48030286005
:100A0000286820F4802002E0286840F480302860C4
:100A1000606890B1FFF750FE06460AE0286840F48F
:100A200080202860F0E700BFFFF746FE801B6428A7
:100A300073D828688003F7D50CE0FFF73DFE064623
:100A400005E000BFFFF738FE801B6428F0D8286857
:100A50008003F7D420789A4E80074FF001094FF0B9
:100A6000000839D5686810F00C0F07D06868C0F32B
:100A70008100022809D16868C00306D4286880076D
:100A800014D52069012808D110E02069B0B1C6F85A
:100A90000090FFF711FE074605E00AE1FFF70CFEA4
:100AA000C01B0228C4D828688007F7D52868616968
:100AB00020F0F80040EAC10028600DE0C6F8008090
:100AC000FFF7FAFD074604E0FFF7F6FDC01B02281A
:100AD00023D828688007F7D4207800072CD57948D8
:100AE000A169D9B1C0F80090FFF7E6FD074604E020
:100AF000FFF7E2FDC01B02280FD8686A8007F7D510
:100B000071484FF4FA510068B0FBF1F0009000BF5B
:100B10000098411E0091FAD20EE080E0C0F80080FB
:100B2000FFF7CAFD074604E0FFF7C6FDC01B022819
:100B300075D8686A8007F7D42078400760D5E869DF
:100B40000027C00008D4E86940F08050E861E869F7
:100B5000012700F0805000905C480168C90513D45B
:100B60000168834641F480710160FFF7A5FD82466C
:100B700006E000BFFFF7A0FDA0EB0A0064284ED8F6
:100B8000DBF80000C005F5D5E06801280AD008B1FF
:100B9000052813D0286A20F001002862286A20F076
:100BA000040002E0286A40F001002862E06841F297
:100BB000883B98B1FFF780FD82460BE0286A40F041
:100BC00004002862EEE700BFFFF776FDA0EB0A0104
:100BD00059455AD8286A8007F6D50CE0FFF76CFD16
:100BE000824605E0FFF768FDA0EB0A0159454CD8A5
:100BF000286A8007F6D41FB1E86920F08050E861C8
:100C0000E06988B36968C1F38101022944D00228F0
:100C1000C6F8608004D0FFF74FFD044638E034E0AA
:100C2000FFF74AFD074604E0FFF746FDC01B022818
:100C30002BD828688001F7D4206AB0F5803F05D111
:100C40006868A16820F4003008436860D4E90801AE
:100C50000843696821F4741108436860C6F860901D
:100C6000FFF72AFD044606E025E000BFFFF724FD5C
:100C7000001B022809D828688001F7D51BE000BFB7
:100C8000FFF71AFD001B022802D90320BDE8F88FE8
:100C900028688001F4D40EE00128F7D06868226A41
:100CA00000F48031914204D1616A00F470108842EE
:100CB00001D00120EAE70020E8E700000010024030
:100CC00000004242800442420C00002000700040BC
:100CD00010B5401EB0F1807F01D3012010BD4FF050
:100CE000E02460610F21601700F094FA0020A061F9
:100CF00007202061002010BD70B5040004D094F8D6
:100D00003D00002510B106E0012070BD84F83C5084
:100D1000204600F023F8242084F83D002068C168B4
:100D200021F40051C160204600F0D4F92068016927
:100D300021F4904101612068416921F02A0141615B
:100D40002068C16841F40051C1602564202084F806
:100D50003D0084F83E00002070BD000070B586B0F4
:100D60000024009401940294039403682648254EBD
:100D7000022103220515B3421ED1836943F4804347
:100D80008361836903F480430493836943F004031C
:100D9000836180691D4E00F0040004900802CDE9D3
:100DA0000001039269463046FFF77CFBCDE9005411
:100DB00069463046029420E0154EB3421FD1C36904
:100DC00043F48023C361C36903F4802304938369DC
:100DD00043F0080383618069CDE9005100F0080009
:100DE000CDE903200B4D69462846FFF75BFBE8146D
:100DF000CDE90004694628460294FFF753FB06B08C
:100E000070BD0000003801400010024000080140A1
:100E100000480040000C01402DE9F84F044690F8CE
:100E20003E009A4616460D46202853D1FDB1F6B134
:100E300094F83C0001284DD0012084F83C000027A4
:100E40002764222084F83E002763FFF735FCA6853F
:100E50008146E685A0684FF48058404501D120695D
:100E600040B12E465FF0000584F83C7027E0012079
:100E7000BDE8F88F0026F7E74B46002220212046E8
:100E8000CDF800A000F082F908B10320F0E726B108
:100E9000A06840451BD038B108E020684068C0F326
:100EA000080025F8020B07E0206980B1206840683F
:100EB00000F07F0006F8010BE08D401EE085E08D1C
:100EC0000028D9D1202084F83E000020D0E72068F7
:100ED0004068EFE70220CBE72DE9F843044690F89D
:100EE0003D001F4616460D4620284CD1C5B1BEB167
:100EF00094F83C00012846D0012084F83C004FF0D3
:100F00000008C4F84080212084F83D00FFF7D4FB9E
:100F1000A6848146E684A068B0F5805F03D004E033
:100F20000120BDE8F883206928B12E465FF0000556
:100F300084F83C800EE00026FAE78021204600F08D
:100F400025F9A0B9AEB116F8010B21684860E08C14
:100F5000401EE084E08C4B464FF0000200970028D2
:100F6000EBD14FF04001204600F010F930B10320E2
:100F7000D7E735F8020BC0F30800E6E7202084F835
:100F80003D000020CDE70220CBE7FEE730B585B07D
:100F9000002413480094019402940394816941F061
:100FA00008018161816901F008010491816941F0C2
:100FB0000401816180690B4D00F00400012204905E
:100FC00011462846FFF772FB01210091CDE901147B
:100FD000039169462846FFF765FA05B030BD000069
:100FE00000100240000C01400C4810B50A49016095
:100FF0004FF4E1314160002181600C22C160C0E901
:1010000004128161C161FFF777FE002803D0BDE8BB
:101010001040FFF7F7B810BD003801401C00002059
:101020000C4810B50A4901604FF4E13141600021DC
:1010300081600C22C160C0E904128161C161FFF7C7
:101040005BFE002803D0BDE81040FFF7DBB810BD01
:101050000048004060000020FEE7FEE77047704750
:10106000FFF730BB30B58FB028216846FFF795F801
:1010700014210AA8FFF791F801210804CDE9001016
:101080000024029402250491CDE907504FF4E010AA
:1010900009906846FFF78CFC08B172B6FEE70F2096
:1010A000CDE90A054FF48060CDE90C4002210AA881
:1010B0000E94FFF791FB002801D072B6FEE70FB047
:1010C00030BD000002494FF000600860704700002A
:1010D00008ED00E070B5044600680169E26821F49B
:1010E0004051114301612169A068084361690843C7
:1010F0002168CA6841F20C639A430243CA602068BF
:101100004169A26921F44071114341611E4920687F
:10111000884202D1FFF706FC01E0FFF7F3FB00EB8A
:10112000C00101EB0012606864218000B2FBF0F3A3
:10113000B3FBF1F36FF018067343B2FBF0F5B2FBAB
:10114000F0F605EB8305322303EB0515B5FBF1F54E
:10115000B6FBF1F605F0F00505EB0615B2FBF0F66F
:10116000B2FBF0F0B0FBF1F06FF01802504306EB69
:10117000800003EB0010B0FBF1F0216800F00F00DD
:101180002844886070BD0000003801402DE9F0411E
:10119000984617460E460446069D1DE0681C1BD067
:1011A0002DB1FFF789FAA0EB0800A84214D92068F6
:1011B000C16821F4D071C1602068416921F001014A
:1011C0004161202084F83D0084F83E00002084F82E
:1011D0003C000320BDE8F0812068006836EA00008A
:1011E00004D00020B842D9D00020F3E70120F9E76D
:1011F000FEE700000FB4054B10B503A9044A02989E
:1012000000F028F810BC5DF814FB00007918000805
:10121000180000200907090E002804DB00F1E02077
:1012200080F80014704700F00F0000F1E02080F813
:10123000141D704702E008C8121F08C1002AFAD125
:1012400070477047002001E001C1121F002AFBD146
:10125000704700002DE9FF4F89B09B4604460025EA
:1012600006E025280BD05A460B999047641C6D1C4C
:1012700020780028F5D10DB02846BDE8F08F002772
:10128000B8460122474900E0074314F8013F203BDC
:1012900002FA03F00842F7D120782E2819D114F869
:1012A000010F47F004072A280ED06FF02F02207894
:1012B000A0F1300109290CD808EB880102EB4101AB
:1012C00000EB0108641CF2E70A98641C50F8048BD8
:1012D0000A9020780028CED0642808D0692806D04B
:1012E00075281ED05A460B9990476D1C58E00A99F4
:1012F0004FF00A0901C90A91002802DA40422D2163
:1013000002E0390504D52B218DF82010012103E0DE
:10131000F90704D02021F7E78A4608AE0DE0002146
:10132000FAE70A994FF00A0901C90A91F7E7494615
:10133000FEF73EFF303106F8011D0028F7D1ADEB76
:10134000060000F12009780701D44FF00108C845D4
:1013500002DDA8EB090000E000208046002706E03F
:1013600008A85A46C05D0B9990476D1C7F1C5745D5
:10137000F6DB04E030205A460B9990476D1CB8F11B
:101380000001A8F10108F5DC05E016F8010B5A464A
:101390000B9990476D1CB9F10001A9F10109F4DC2A
:1013A000641C65E7092801002DE9F043ADF2144DF6
:1013B00079208DF8080478208DF80C0400244FF46F
:1013C0008067254639466846FEF7E7FE00F0ACF92F
:1013D00000286FD0661E334601220DF58161444816
:1013E000FFF77AFD41F288394B4601220DF5806105
:1013F0003F48FFF711FD08B13EA010E0B04633466C
:1014000001220DF20C413A48FFF766FD4B460122DE
:101410000DF204413648FFF7FFFC18B142A0FFF778
:10142000E9FE4BE09DF800049DF804144A4E40EAA2
:1014300001214AA07180FFF7DDFE7088844213D33A
:10144000A10A4EA0FFF7D6FEBC4201D8012200E05F
:1014500000223946684600F0A9F900282ED1394605
:101460006846FEF79AFE0025708884423BD24346C8
:1014700001220DF581611E48FFF72EFD4B4601222A
:101480000DF580611A48FFF7C7FC10B1294641A04D
:1014900012E0434601220DF20C411548FFF71CFDF6
:1014A0004B4601220DF204411148FFF7B5FC48B14B
:1014B000294600E017E046A0FFF79CFE53A0FFF787
:1014C00099FEFEE79DF800040DF805006D1CA8B21A
:1014D0009DF804240DF80020401CA41C85B2A4B281
:1014E000BD42AAD1ACE70DF2144DBDE8F083000077
:1014F00060000020476574206170706C69636174DE
:10150000696F6E2053697A65206572726F72202848
:1015100072785F68756631292E2E2E48414C542111
:1015200021210D0A00000000476574206170706C75
:1015300069636174696F6E2053697A6520657272A0
:101540006F722872785F62756632292E2E2E48419E
:101550004C542121210D0A00100000204170706CB4
:1015600069636174696F6E2053697A65203D202537
:10157000642062797465730D0A000000526563652A
:101580006976656420426C6F636B5B25645D0D0A50
:1015900000000000476574206170706C69636174BD
:1015A000696F6E20646174615B696E6465783A2569
:1015B000645D206572726F72202872785F62756652
:1015C00031292E2E2E48414C542121210D0A000094
:1015D000476574206170706C69636174696F6E2017
:1015E000646174615B696E6465783A25645D206549
:1015F00072726F722872785F62756632292E2E2E93
:1016000048414C542121210D0A00000052656365B8
:1016100069766520417070206661696C2021212106
:101620000D0A000010B52EA0FFF7E4FDEFF31480C3
:10163000C00700D001DF72B64FF0E0204FF0FF315D
:10164000C0F88011C0F88411C0F88811C0F88C115E
:10165000C0F89011C0F89411C0F89811C0F89C110E
:10166000C0F88012C0F88412C0F88812C0F88C123A
:10167000C0F89012C0F89412C0F89812C0F89C12EA
:10168000002101611D48016841F0007101601B48A3
:101690002030016821F4E0210160EFF3148080071D
:1016A00005D5EFF3148020F0020080F3148813496D
:1016B0001348091D0860011D0C68611C0BD00068EF
:1016C00080F30888012211460E48FEF7EFFFA4467A
:1016D000BDE8104060470CA0FFF78CFDFEE700005E
:1016E000476F6E6E61206A756D7020746F20417057
:1016F000706C69636174696F6E210A0004ED00E02B
:1017000000440008000C0140496E76616C69642059
:101710004170706C69636174696F6E2E2E2E204863
:10172000414C54210D0A00002DE9FC4167208DF841
:10173000040030200025144E8DF800002C466F1E4A
:1017400001213046FEF7AAFF3B46012201A90F48BE
:10175000FFF7C2FB0A23012269460C48FFF75CFB36
:1017600018B99DF80000722807D0642C09D0641CB9
:10177000E4B21420FEF7D2FDE2E705A0FFF73AFD40
:1017800001252846BDE8FC81000C014060000020D6
:101790004669726D77617265205570646174652069
:1017A000537461727465640D0A0000002DE9F047FE
:1017B00086B090460E468246FEF760FE040032D1A7
:1017C00000251B4FDFF86C90B8F1000F0ED01AA067
:1017D000FFF710FD2F20CDE9027004A9009568469F
:1017E000FEF7AEFD04001ED1A9F80050B846002552
:1017F0004F4612E00AEB4500398802880023414435
:101800000120FEF7FBFD040003D013A0FFF7F2FC5C
:1018100009E03888801C38806D1CB5EB560FE9DB79
:10182000FEF7E2FD044606B02046BDE8F087000062
:10183000004400081000002045726173696E672043
:1018400074686520466C617368206D656D6F727990
:101850002E2E2E0D0A000000466C61736820577210
:10186000697465204572726F722E2E2E48414C5459
:101870002121210D0A00000013B54FF47A730122D3
:1018800069460248FFF728FB00981CBD1C00002099
:10189000FEF720FFFFF7E6FBFFF778FBFFF7A4FB5F
:1018A000FFF7BEFB05484278017805A0FFF7A2FCD0
:1018B000FFF77AFDFFF7B6FEFEE7000014000020F8
:1018C000426F6F746C6F616465725F766572736985
:1018D0006F6E3A7625642E2564200A000000000011
:1018E00000000000010203040607080900000000D0
:1018F0000102030414190008000000201C0000006D
:1019000034120008301900081C000020AC0400004C
:101910004412000801000000100000000000000058
:101920000024F4000000000000000000000000009F
:0400000508000131BD
:00000001FF
